{
  "_format": "hh-sol-artifact-1",
  "contractName": "Voting",
  "sourceName": "contracts/Voting.sol",
  "abi": [
    {
      "inputs": [
        {
          "internalType": "string[]",
          "name": "_candidateNames",
          "type": "string[]"
        }
      ],
      "stateMutability": "nonpayable",
      "type": "constructor"
    },
    {
      "inputs": [],
      "name": "candidateCount",
      "outputs": [
        {
          "internalType": "uint256",
          "name": "",
          "type": "uint256"
        }
      ],
      "stateMutability": "view",
      "type": "function"
    },
    {
      "inputs": [
        {
          "internalType": "uint256",
          "name": "",
          "type": "uint256"
        }
      ],
      "name": "candidates",
      "outputs": [
        {
          "internalType": "uint256",
          "name": "id",
          "type": "uint256"
        },
        {
          "internalType": "string",
          "name": "name",
          "type": "string"
        },
        {
          "internalType": "uint256",
          "name": "voteCount",
          "type": "uint256"
        }
      ],
      "stateMutability": "view",
      "type": "function"
    },
    {
      "inputs": [
        {
          "internalType": "uint256",
          "name": "_candidateId",
          "type": "uint256"
        }
      ],
      "name": "getVoteCount",
      "outputs": [
        {
          "internalType": "uint256",
          "name": "",
          "type": "uint256"
        }
      ],
      "stateMutability": "view",
      "type": "function"
    },
    {
      "inputs": [
        {
          "internalType": "address",
          "name": "",
          "type": "address"
        }
      ],
      "name": "hasVoted",
      "outputs": [
        {
          "internalType": "bool",
          "name": "",
          "type": "bool"
        }
      ],
      "stateMutability": "view",
      "type": "function"
    },
    {
      "inputs": [
        {
          "internalType": "uint256",
          "name": "_candidateId",
          "type": "uint256"
        }
      ],
      "name": "vote",
      "outputs": [],
      "stateMutability": "nonpayable",
      "type": "function"
    }
  ],
  "bytecode": "0x60806040523480156200001157600080fd5b5060405162000d6d38038062000d6d83398181016040528101906200003791906200045e565b60005b81518110156200008857620000728282815181106200005e576200005d620004af565b5b60200260200101516200009060201b60201c565b80806200007f9062000517565b9150506200003a565b5050620005ca565b60026000815480929190620000a59062000517565b919050555060405180606001604052806002548152602001828152602001600081525060008060025481526020019081526020016000206000820151816000015560208201518160010190805190602001906200010492919062000115565b506040820151816002015590505050565b828054620001239062000594565b90600052602060002090601f01602090048101928262000147576000855562000193565b82601f106200016257805160ff191683800117855562000193565b8280016001018555821562000193579182015b828111156200019257825182559160200191906001019062000175565b5b509050620001a29190620001a6565b5090565b5b80821115620001c1576000816000905550600101620001a7565b5090565b6000604051905090565b600080fd5b600080fd5b600080fd5b6000601f19601f8301169050919050565b7f4e487b7100000000000000000000000000000000000000000000000000000000600052604160045260246000fd5b6200022982620001de565b810181811067ffffffffffffffff821117156200024b576200024a620001ef565b5b80604052505050565b600062000260620001c5565b90506200026e82826200021e565b919050565b600067ffffffffffffffff821115620002915762000290620001ef565b5b602082029050602081019050919050565b600080fd5b600080fd5b600067ffffffffffffffff821115620002ca57620002c9620001ef565b5b620002d582620001de565b9050602081019050919050565b60005b8381101562000302578082015181840152602081019050620002e5565b8381111562000312576000848401525b50505050565b60006200032f6200032984620002ac565b62000254565b9050828152602081018484840111156200034e576200034d620002a7565b5b6200035b848285620002e2565b509392505050565b600082601f8301126200037b576200037a620001d9565b5b81516200038d84826020860162000318565b91505092915050565b6000620003ad620003a78462000273565b62000254565b90508083825260208201905060208402830185811115620003d357620003d2620002a2565b5b835b818110156200042157805167ffffffffffffffff811115620003fc57620003fb620001d9565b5b8086016200040b898262000363565b85526020850194505050602081019050620003d5565b5050509392505050565b600082601f830112620004435762000442620001d9565b5b81516200045584826020860162000396565b91505092915050565b600060208284031215620004775762000476620001cf565b5b600082015167ffffffffffffffff811115620004985762000497620001d4565b5b620004a6848285016200042b565b91505092915050565b7f4e487b7100000000000000000000000000000000000000000000000000000000600052603260045260246000fd5b7f4e487b7100000000000000000000000000000000000000000000000000000000600052601160045260246000fd5b6000819050919050565b600062000524826200050d565b91507fffffffffffffffffffffffffffffffffffffffffffffffffffffffffffffffff8214156200055a5762000559620004de565b5b600182019050919050565b7f4e487b7100000000000000000000000000000000000000000000000000000000600052602260045260246000fd5b60006002820490506001821680620005ad57607f821691505b60208210811415620005c457620005c362000565565b5b50919050565b61079380620005da6000396000f3fe608060405234801561001057600080fd5b50600436106100575760003560e01c80630121b93f1461005c57806309eef43e146100785780633477ee2e146100a8578063a9a981a3146100da578063b2c2f2e8146100f8575b600080fd5b610076600480360381019061007191906103bd565b610128565b005b610092600480360381019061008d9190610448565b61028b565b60405161009f9190610490565b60405180910390f35b6100c260048036038101906100bd91906103bd565b6102ab565b6040516100d193929190610553565b60405180910390f35b6100e261035d565b6040516100ef9190610591565b60405180910390f35b610112600480360381019061010d91906103bd565b610363565b60405161011f9190610591565b60405180910390f35b60008111801561013a57506002548111155b610179576040517f08c379a0000000000000000000000000000000000000000000000000000000008152600401610170906105f8565b60405180910390fd5b600160003373ffffffffffffffffffffffffffffffffffffffff1673ffffffffffffffffffffffffffffffffffffffff16815260200190815260200160002060009054906101000a900460ff1615610206576040517f08c379a00000000000000000000000000000000000000000000000000000000081526004016101fd90610664565b60405180910390fd5b600080828152602001908152602001600020600201600081548092919061022c906106b3565b919050555060018060003373ffffffffffffffffffffffffffffffffffffffff1673ffffffffffffffffffffffffffffffffffffffff16815260200190815260200160002060006101000a81548160ff02191690831515021790555050565b60016020528060005260406000206000915054906101000a900460ff1681565b60006020528060005260406000206000915090508060000154908060010180546102d49061072b565b80601f01602080910402602001604051908101604052809291908181526020018280546103009061072b565b801561034d5780601f106103225761010080835404028352916020019161034d565b820191906000526020600020905b81548152906001019060200180831161033057829003601f168201915b5050505050908060020154905083565b60025481565b6000806000838152602001908152602001600020600201549050919050565b600080fd5b6000819050919050565b61039a81610387565b81146103a557600080fd5b50565b6000813590506103b781610391565b92915050565b6000602082840312156103d3576103d2610382565b5b60006103e1848285016103a8565b91505092915050565b600073ffffffffffffffffffffffffffffffffffffffff82169050919050565b6000610415826103ea565b9050919050565b6104258161040a565b811461043057600080fd5b50565b6000813590506104428161041c565b92915050565b60006020828403121561045e5761045d610382565b5b600061046c84828501610433565b91505092915050565b60008115159050919050565b61048a81610475565b82525050565b60006020820190506104a56000830184610481565b92915050565b6104b481610387565b82525050565b600081519050919050565b600082825260208201905092915050565b60005b838110156104f45780820151818401526020810190506104d9565b83811115610503576000848401525b50505050565b6000601f19601f8301169050919050565b6000610525826104ba565b61052f81856104c5565b935061053f8185602086016104d6565b61054881610509565b840191505092915050565b600060608201905061056860008301866104ab565b818103602083015261057a818561051a565b905061058960408301846104ab565b949350505050565b60006020820190506105a660008301846104ab565b92915050565b7f496e76616c69642043616e646964617465204964000000000000000000000000600082015250565b60006105e26014836104c5565b91506105ed826105ac565b602082019050919050565b60006020820190508181036000830152610611816105d5565b9050919050565b7f596f75206861766520616c726561647920766f74656400000000000000000000600082015250565b600061064e6016836104c5565b915061065982610618565b602082019050919050565b6000602082019050818103600083015261067d81610641565b9050919050565b7f4e487b7100000000000000000000000000000000000000000000000000000000600052601160045260246000fd5b60006106be82610387565b91507fffffffffffffffffffffffffffffffffffffffffffffffffffffffffffffffff8214156106f1576106f0610684565b5b600182019050919050565b7f4e487b7100000000000000000000000000000000000000000000000000000000600052602260045260246000fd5b6000600282049050600182168061074357607f821691505b60208210811415610757576107566106fc565b5b5091905056fea2646970667358221220560c6a10c6d8ea6b4fa1e3239d52dd77c95c4601241faa96a95fdd185c3fe21a64736f6c634300080a0033",
  "linkReferences": {},
  "deployedLinkReferences": {}
}